:020000040000fa
:080000000002040000000000f2
:020000040000fa
:040008009003000061
:020000040000fa
:04000c00900300005d
:020000040000fa
:040010009003000059
:020000040000fa
:040014009003000055
:020000040000fa
:040018009003000051
:020000040000fa
:04001c00900300004d
:020000040000fa
:040020009003000049
:020000040000fa
:040024009003000045
:020000040000fa
:040028009003000041
:020000040000fa
:04002c000a030000c3
:020000040000fa
:040030009003000039
:020000040000fa
:04003400dc020000ea
:020000040000fa
:040038009003000031
:020000040000fa
:04003c00900300002d
:020000040000fa
:040040009003000029
:020000040000fa
:04004400f0020000c6
:020000040000fa
:040048009003000021
:020000040000fa
:04004c00900300001d
:020000040000fa
:040050009003000019
:020000040000fa
:040054009003000015
:020000040000fa
:040058009003000011
:020000040000fa
:04005c00900300000d
:020000040000fa
:040060009003000009
:020000040000fa
:040064009003000005
:020000040000fa
:040068009003000001
:020000040000fa
:04006c0090030000fd
:020000040000fa
:0400700090030000f9
:020000040000fa
:0400740090030000f5
:020000040000fa
:0400780090030000f1
:020000040000fa
:04007c0090030000ed
:020000040000fa
:0400800090030000e9
:020000040000fa
:0400840090030000e5
:020000040000fa
:0400880090030000e1
:020000040000fa
:04008c0090030000dd
:020000040000fa
:0400900090030000d9
:020000040000fa
:0400940090030000d5
:020000040000fa
:0400980090030000d1
:020000040000fa
:04009c0090030000cd
:020000040000fa
:0400a00090030000c9
:020000040000fa
:0400a40090030000c5
:020000040000fa
:0400a80090030000c1
:020000040000fa
:0400ac0090030000bd
:020000040000fa
:0400b00090030000b9
:020000040000fa
:0400b40090030000b5
:020000040000fa
:0400b80090030000b1
:020000040000fa
:0400bc0090030000ad
:020000040000fa
:0400c00090030000a9
:020000040000fa
:0400c40090030000a5
:020000040000fa
:0400c80090030000a1
:020000040000fa
:0400cc00900300009d
:020000040000fa
:0400d0009003000099
:020000040000fa
:0400d4009003000095
:020000040000fa
:0400d8009003000091
:020000040000fa
:0400dc00900300008d
:020000040000fa
:0400e0009003000089
:020000040000fa
:0400e4009003000085
:020000040000fa
:0400e8009003000081
:020000040000fa
:0400ec00900300007d
:020000040000fa
:0400f0009003000079
:020000040000fa
:0400f4009003000075
:020000040000fa
:0400f8009003000071
:020000040000fa
:0400fc00900300006d
:020000040000fa
:040100009003000068
:020000040000fa
:040104009003000064
:020000040000fa
:040108009003000060
:020000040000fa
:04010c00900300005c
:020000040000fa
:040110009003000058
:020000040000fa
:040114009003000054
:020000040000fa
:040118009003000050
:020000040000fa
:04011c00900300004c
:020000040000fa
:040120009003000048
:020000040000fa
:040124009003000044
:020000040000fa
:040128009003000040
:020000040000fa
:04012c00900300003c
:020000040000fa
:040130009003000038
:020000040000fa
:040134009003000034
:020000040000fa
:040138009003000030
:020000040000fa
:04013c00900300002c
:020000040000fa
:040140009003000028
:020000040000fa
:040144009003000024
:020000040000fa
:040148009003000020
:020000040000fa
:04020800900300005f
:020000040000fa
:04020c00900300005b
:020000040000fa
:040210009003000057
:020000040000fa
:040214009003000053
:020000040000fa
:04021800900300004f
:020000040000fa
:04021c00900300004b
:020000040000fa
:040220009003000047
:020000040000fa
:040224009003000043
:020000040000fa
:04022800900300003f
:020000040000fa
:04022c000a030000c1
:020000040000fa
:040230009003000037
:020000040000fa
:04023400dc020000e8
:020000040000fa
:04023800900300002f
:020000040000fa
:04023c00900300002b
:020000040000fa
:040240009003000027
:020000040000fa
:04024400f0020000c4
:020000040000fa
:04024800900300001f
:020000040000fa
:04024c00900300001b
:020000040000fa
:040250009003000017
:020000040000fa
:040254009003000013
:020000040000fa
:04025800900300000f
:020000040000fa
:04025c00900300000b
:020000040000fa
:040260009003000007
:020000040000fa
:040264009003000003
:020000040000fa
:0402680090030000ff
:020000040000fa
:04026c0090030000fb
:020000040000fa
:0402700090030000f7
:020000040000fa
:0402740090030000f3
:020000040000fa
:0402780090030000ef
:020000040000fa
:04027c0090030000eb
:020000040000fa
:0402800090030000e7
:020000040000fa
:0402840090030000e3
:020000040000fa
:0402880090030000df
:020000040000fa
:04028c0090030000db
:020000040000fa
:0402900090030000d7
:020000040000fa
:0402940090030000d3
:020000040000fa
:0402980090030000cf
:020000040000fa
:04029c0090030000cb
:020000040000fa
:0402a00090030000c7
:020000040000fa
:0402a40090030000c3
:020000040000fa
:0402a80090030000bf
:020000040000fa
:0402ac0090030000bb
:020000040000fa
:0402b00090030000b7
:020000040000fa
:0402b40090030000b3
:020000040000fa
:0402b80090030000af
:020000040000fa
:0402bc0090030000ab
:020000040000fa
:0402c00090030000a7
:020000040000fa
:0402c40090030000a3
:020000040000fa
:0402c800900300009f
:020000040000fa
:0402cc00900300009b
:020000040000fa
:0402d0009003000097
:020000040000fa
:0402d4009003000093
:020000040000fa
:0402d800900300008f
:020000040000fa
:0402dc00900300008b
:020000040000fa
:0402e0009003000087
:020000040000fa
:0402e4009003000083
:020000040000fa
:0402e800900300007f
:020000040000fa
:0402ec00900300007b
:020000040000fa
:0402f0009003000077
:020000040000fa
:0402f4009003000073
:020000040000fa
:0402f800900300006f
:020000040000fa
:0402fc00900300006b
:020000040000fa
:040300009003000066
:020000040000fa
:040304009003000062
:020000040000fa
:04030800900300005e
:020000040000fa
:04030c00900300005a
:020000040000fa
:040310009003000056
:020000040000fa
:040314009003000052
:020000040000fa
:04031800900300004e
:020000040000fa
:04031c00900300004a
:020000040000fa
:040320009003000046
:020000040000fa
:040324009003000042
:020000040000fa
:04032800900300003e
:020000040000fa
:04032c00900300003a
:020000040000fa
:040330009003000036
:020000040000fa
:040334009003000032
:020000040000fa
:04033800900300002e
:020000040000fa
:04033c00900300002a
:020000040000fa
:040340009003000026
:020000040000fa
:040344009003000022
:020000040000fa
:04034800900300001e
:020000040000fa
:100400002fa720000e7f22000e01880000000000b0
:10041000000020000000e000020032000001200087
:100420002002880014000700340107000000e000eb
:1004300003003a00206a210001002000020037007a
:100440000000200001002000810f70000100320038
:1004500014000700000020000000e000020032004d
:100460000000020000000000861a020000000000e8
:100470000040da000000fe004440a90020032000f4
:100480000000e0000300320000002000a00188000e
:100490004440a800000006008a1f78008b1f7800e7
:1004a0000000060091018800800478000000eb0045
:1004b0001a003700e284440032a0b4009905ba0063
:1004c000e284440032a0b4009906ba00e2844400f9
:1004d00032a0b4000006eb00476fde00fd07b2005b
:1004e000636ce10003003a00ebff07000000eb0043
:1004f0000a003700606ce10004003a00005deb0088
:100500008b05e900fdff3e00040037006168e10053
:10051000010032000086eb000b00070019c7ba008b
:100520001905ba000e04e00003003a000a00e000da
:10053000e0ff3a0000000600fe07b2009e018800be
:100540008a047800f5ff3700395dba008b05e900b1
:100550000c003200295dba008b05e900080032006a
:100560000c00e00003003a00e284440032a0b40032
:10057000f5ff370019ddba008b05e900faff3a00f4
:100580008904e800e184440032a0b40000000600c1
:10059000000000000000000000000000000000005b
:1005a000000000000000000000000000000000004b
:1005b00000000000000000003400f800881f7800f0
:1005c00008002000a80188004f0478000000fa000d
:1005d0008460a9000080fa003400f90000400600a1
:1005e000801f78003400f80000002000a00188007f
:1005f0000000fa00804080000000e8008040880091
:1006000084e0a9000080fa003400f9004f0078006f
:1006100000400600809fbe00829fbe00849fbe00f7
:100620003400f80000002000a00188000800fa0053
:100630008420a900000a80008000eb00008fbe002b
:1006400080408000cf80de0042422f000289b90046
:10065000020178006002b9008401780003014100c2
:1006600043422f000300b8000101410082007800de
:100670003e014000ae8148000200be002007980005
:10068000310798002e019000be019000a00f2000bd
:1006900001002000800f5100818f59001a003600a0
:1006a00060408000e10f50000f003e00504080008d
:1006b00002802000c200dd00810041002e01900078
:1006c000be0190008288be000000e8005040880013
:1006d0005040800061006000504088006040800011
:1006e0000000e800604088000621ef001028ef00bd
:1006f00070408000e10f500003003a00b0408000dd
:100700000000e800b04088000080fa003400f900e2
:100710004f02be004f01be004f00be000040060069
:100720000040da000000fe000a00fa00110020007c
:10073000b1bf9f00c0bf9f006a805700000807003c
:100740004fb897000080fa00000006000a00fa0087
:10075000e20f500034003e0070538000e10f500063
:1007600003003200e20f500011003a000c00370085
:10077000032220000300e00001003a000040da00fc
:100780002002e200020035002822ef0021e2a8004a
:100790002342ab000d003a002342a8000b003700b3
:1007a000032320000300e00001003a000040da00cb
:1007b0003002e200020035003822ef0031e2a800ea
:1007c0003342ab0001003a003342a80082017800b6
:1007d0000b0037003102fb00e10f500004003a002b
:1007e0002322ab00feff3a002411880003003700eb
:1007f0003322ab00feff3a00a41188008301e90018
:100800000300e000f3ff3a00e10f500003003a005c
:100810002302ab00feff32000b0037003302ab00b7
:10082000feff32000800370033002000b3bf9f00f6
:10083000c0bf9f00d1bf9f00e2bf9f006a805700ea
:10084000c10707006fb99700020078000080fa0026
:10085000000006000a00fa0051002000b1bf9f000e
:10086000c0bf9f006a805700b90707005fb89700b4
:100870000080fa0000000600889fbe008004780017
:10088000805380000000e00004003a000e000700e2
:100890000084eb000000e000080035008853800071
:1008a0000900e000050032000900440006000700ce
:1008b0000000e00001003d000084eb00080078002b
:1008c0004f04be0000000600800078000100e00038
:1008d00003003a000000200080538800000005005b
:1008e0000080eb0002002000828f500002003e00da
:1008f000815388000000eb000000060000000500a6
:1009000003f0a200889fbe008a9fbe008c1f780063
:10091000150107001c0133006450e1004f00320054
:100920006420e1005200320003826c0007003b00ab
:100930000905d0000306d000820f54000c065d00ac
:1009400002003900020032008901780003067800b5
:100950008582550004003d000003fd008103fd0079
:100960008502ea008b854200840f720002003b0082
:1009700060001000e08018006011b8000005eb0076
:100980007a28e1000a00390006007800c75ddd0022
:10099000f707b200878075002d0037008281710053
:1009a0000a017800610560008180d1000080d300d9
:1009b0008502e900f9ff3b000604400087844800f7
:1009c00002003b0060041400e0841c000988a300be
:1009d000070032008a817100828171006101640028
:1009e0008904d1000884d3008b05e8001700370084
:1009f0000978a30013003a000b00e0001300340054
:100a00008b05e9000804440089844c000a44740002
:100a10000978a3000d003a000b00e0000700340045
:100a20008b05e9000804440089844c0001003a0069
:100a30000b0020000978a300f7ff32000001eb0053
:100a400002003700828171000a0178008b000700e4
:100a50000cf0a70001f0a000d40037006420e100f2
:100a600002003a00838f6c00d40033000801be00fe
:100a70000200be00cd003700889fbe008a9fbe00e6
:100a80008c1f7800b8000700bf00330003866c009d
:100a90006450e1002e0032006420e1003300320097
:100aa0006150e1002f0032006120e100310032008e
:100ab00085855500eb07b0000900200008042000e0
:100ac000050037000804440089844c000a00310006
:100ad0000603430087834b000001530081815b00c4
:100ae000f8ff33000203be000800a0000804440021
:100af00089844c00f6ff3900c639dd00830173009c
:100b000001003200130020008904d1000884d300c2
:100b10000998a300050032000800a7000300a00008
:100b20008904d1000884d3008b05e8008904d10032
:100b30000884d3000001eb000281d2004f000700bf
:100b400001f0a1000cf0a70001f0a0009700370011
:100b50006420e100990032000801be000200be00de
:100b6000f7ff37006120e100940032006000b80018
:100b7000f3ff37000000200001f82700f0ff3700e6
:100b80000001be00630007000470a70003f0a1008d
:100b90006509b100160032000d0035006828e1003b
:100ba00006003500f0ff2f00f1ff27000300e000f2
:100bb00013003b0001002800000005000000400079
:100bc000818048008502e900fcff3a0008003700f8
:100bd000f88f420002003c008000eb00000005009e
:100be0008100d1000080d3008502e800fcff3a00bc
:100bf0000300e00002003b0060001000e0801800ed
:100c0000000006000001be00420007000470a700bb
:100c100003f0a10003f8a30013003a006509b10036
:100c200010003200090035006928e100020035009b
:100c300001002800000005000000400081804800fd
:100c40008502e900fcff3a0000000600f88f420030
:100c5000050035008100d1000080d3008502e80046
:100c6000fcff3a00000006008000eb0000000500d9
:100c70004f89de0082017800530037008100200098
:100c8000618055000b003d000b00200061fe2f002d
:100c90000100e1001d0034008281710061016400e7
:100ca0008904d1000884d3000000e800faff3a006c
:100cb0007100200061006400030070000200600009
:100cc0000900320061044400e0844c000988a5005a
:100cd000050032008b05e8006808e10002003a00d8
:100ce0008904d1000884d300f20f20000258e100eb
:100cf00005003d00c75ddd00f907b2008980750081
:100d000008007800000006000bf827008b00780030
:100d100000000500c70ade00f107b200f50fb200bf
:100d200008003200e1cf4200020032000170a00052
:100d300024000500810f7000010032000408050046
:100d400044000500810f700002003a001400050005
:100d50008502e9000000400081c04800fcff3b0024
:100d60000170a000240005000004be00e9ff070098
:100d70000003be000405be000200be00e5ff070040
:100d8000844f7500000006000200be006450e100c0
:100d9000050036006420e100020036000968a30067
:100da00001003a000800be000160a0004f06780074
:100db0004f05be004f04be0000000600f0ff2f00ec
:100dc000f1ff2700f9ff3700881f7800030478003f
:100dd0000300e00007003d0060001000e080180004
:100de00060011900e081190002003b0001f02d00b4
:100df000030037000400070008f0a70001f0a0007e
:100e00004f04780000000600889fbe008a9fbe0045
:100e1000008270000402710004827100260032001a
:100e20000004be000200be006011b8006b09200083
:100e3000950220000182cf000a0039000541b1006f
:100e40000082cf00070039000541b1000982cf00c0
:100e5000040039000541b1000882cf0001003900cb
:100e60000541b10005425200120032000a003b0069
:100e700082817100610164008100d1000080d30093
:100e80008984d3000884d3008b05e8000442e8007d
:100e9000f7ff3a00070037000804440089844c003b
:100ea00000004800818048008b05e9000442e90009
:100eb000f9ff3a0071ff07004f05be004f04be0066
:100ec0000000060080007800010178003104e00095
:100ed000fdff3a000000510000000600889fbe00a0
:100ee000800478000203be00010478006149b80064
:100ef000898fd2008381d200080278000600be00ec
:100f000015060700088044004f04be0000000600dc
:100f1000881f78000204780008017800f4010700b7
:100f2000080040004f047800000006000000fa00ae
:100f3000881f7800000478006a825700bfb99700c4
:100f400008017800e1762000807820001600070074
:100f50000000e000020035008040eb0001747800e2
:100f60004f0478000080fa0000000600889fbe0051
:100f7000000478000203be008104780008027800b3
:100f800089017800120020000600be00f603070069
:100f9000890f5000010032000004eb0008007800c7
:100fa0004f04be00000006006800fa00889fbe00e3
:100fb0008a9fbe00800478000104780082057800d2
:100fc000030578008400780000f92f000f0040002e
:100fd000e3030700d98f9f00fb8f9f000000eb0009
:100fe000a09f9f00e88f9f009a84fb000904fb00ec
:100ff0008904ea00cf4cde0050022000800f54002c
:101000000d003200e18f54000b003a000901780016
:101010008a0078007f889700df899700030001002d
:10102000f08f9f000000e000950032002f9897009d
:101030000000e800a09f9f00090545005002200025
:10104000800f5400040032000800e000e6ff3a0080
:101050002f9897008b0037000000eb00809f9f00c7
:10106000f0979f00e0979f00d0979f00c0979f0048
:10107000b0979f000700370001a620000100500034
:101080000000400041a5200061007800cf98970043
:1010900001007000c09f9f000a04780008057800d6
:1010a000ba4478008900fb0000a6200097010700e1
:1010b0000000e000f0ff3a00a1c2b30081cf54006d
:1010c0000e003a008f8897000180e900808f9f0012
:1010d00010007800b09f9f000000e00005003d0078
:1010e0000000ea00b09f9f004f9897000020a000ea
:1010f000c09f9f000804e80010003700b09f9f00c9
:10110000880078000000eb0005003700f3ff27009f
:10111000830f5000020032006a02b900040041004f
:1011200001047800880078003101fb000203b1005f
:10113000e90f5100f5ff3600b09f9f00e0c2b300f9
:10114000984f1000020032000080eb0019003700b9
:10115000a0c2b300d84f100007003a008f88970054
:101160000180e900808f9f0010007800909f9f0011
:101170000804e800100037000000eb00909f9f007b
:101180008800780005003700f3ff2700830f500028
:10119000020032006a02b900040041000104780034
:1011a000880078003101fb000203b100e90f510013
:1011b000f5ff3600909f9f00984478008900fb005f
:1011c000c0a42000510107000000e000020032002e
:1011d0000804e800010037008044eb00a97f9f006d
:1011e00080c6b30080cf540006003a0098cf1400a8
:1011f00010003a0066405000a07f9f000804e800fd
:101200000c003700c0c6b30080cf540009003a007c
:1012100098cf140007003a0067404000d84f1000f4
:1012200002003a006e4050000100370010c7b300c2
:10123000a07f9f001801fb00c3fb2f008f8141009e
:1012400001f92f008f80400020f92f000f0040008f
:10125000150007000000e00009003a00c1fb2f0064
:101260008f80400020f92f000f004000620207002d
:101270000000e000020035000805e8005aff3700d2
:101280000080eb004f05be004f04be000080fa0056
:101290000000060003027800820178000101780056
:1012a000617b200040ff3700889fbe008a9fbe0000
:1012b000e4c6b300844f5100be00320010003c0071
:1012c0006b425200844f51001800320005003c0070
:1012d00054c2b300844f5100f600320084c5b300fd
:1012e0000f00370044c6b300844f51001400320091
:1012f00065424200844f5100f1003a00100037006f
:1013000004c7b300844f5100dd00320056003500a1
:1013100065424200844f5100530032006342420054
:10132000844f5100e6003a004f0037001181e90078
:1013300082087800a008900012417800de00370093
:10134000006a9000c5c6b300854f520007003a00fe
:101350009102780064825200840878001402be0072
:101360004fabde00860378001400370015c7b300ca
:10137000854f520003003a001104780068025400bf
:1013800005003700a5c6b300854f520006003a009d
:101390009104780068825400840878005403be00e9
:1013a0004402be00050037001182e900840878007d
:1013b00014027800cfa2de00612bb9000498be00b1
:1013c0000690be008068900088c6b30088cf5000a9
:1013d0000d00320028c6b30088cf500004003a0048
:1013e0000402fb00cfa2de00612bb9000800370029
:1013f00048c7b30088cf5000030032006644440061
:1014000088cf500004003a00cfa2de00612bb90063
:101410000498be000690be003002be002003be004d
:10142000a0089000e00f5200e08f5a00e00f5b0030
:10143000e08f5b0002003d00d4c2b300080037001b
:10144000301290000418a30002003200b4c2b300ae
:10145000030037000408a3005100320004c2b300a7
:1014600084f178004c003700006a9000c5c6b300d4
:10147000854f520008003a001105780064025500bb
:10148000840878001404be006055b8000802be004d
:101490000a03be001400370015c7b300854f520081
:1014a00003003a0091047800688254000500370078
:1014b000a5c6b300854f520006003a00110578001a
:1014c00068025500840878005403be004402be0040
:1014d000050037001182e9008408780014027800c2
:1014e0008002eb006033b8000498be000690be0096
:1014f0008068900088c6b30088cf50000d0032008d
:1015000028c6b30088cf500004003a000482fb00d4
:101510008002eb006033b8000800370048c7b30012
:1015200088cf5000030032006644440088cf50004a
:1015300004003a008002eb006033b8000498be005b
:101540000690be00b01090000138a30014003200d5
:101550003002be002003be00e00f5200e08f5a00b0
:10156000e00f5b00e08f5b000d00320081c7b3002d
:10157000814f51000300320081c5b300814f5100fb
:1015800007003a00a008900004c3b30084f178007b
:101590008100e80082f178008100e80021089800cd
:1015a000a00890008181410073009800824078007b
:1015b0003e00370080699000c4c6b3001181e90085
:1015c00084cf5100220032000a003c0064425200e5
:1015d00084cf51002500320004c2e80084cf5100be
:1015e000130032006842520084cf51001e003a00be
:1015f0000a00370044c7b30084cf51001b003200fb
:101600006642420084cf5100180032006942520005
:1016100084cf510014003a0005003700820878009a
:101620009200780020609000804878002c003700fd
:10163000820878009200780010129000cfa2de009d
:10164000612bb9008498be008690be00240037004c
:10165000820878009200780010119000cf91de008f
:101660008288be001e0037001181e90082087800e0
:101670009200780010109000800878001800370061
:101680001181e9008208780012027800cfa2de0002
:10169000612bb9000498be000690be00a00890001f
:1016a000818141007300980081c7b30023000700c7
:1016b0000b003700a008900082f178000600370088
:1016c000a0089000818141000204e00001003a007e
:1016d00052c2b300824978008100e80021089800d6
:1016e0000000eb004f05be004f04be0000000600e6
:1016f0008001780002003700b15978000201e9004a
:101700000200e000fcff3a00000006000200370083
:101710000304e000060032000001780002007800b7
:10172000b041780081cf5100f9ff3a000100370045
:101730000001eb000200780000000600fc87470073
:10174000889fbe008a9fbe008c9fbe008e1f7800bf
:101750000006780080c5b30080cf50000a00320038
:101760007740400080cf50000a00320069404000be
:1017700080cf50000b003200b0a3200080bf9f003c
:10178000ae0020000a003700a2a2200082bf9f0006
:1017900006003700b3a3200083bf9f008e00200007
:1017a00003003700b4a3200084bf9f000e01200077
:1017b0003c02be002c03be000605be000404be00b1
:1017c00040c6b30080cf50000300320065404000a7
:1017d00080cf50000b003a00e00f5200e08f5a001b
:1017e000e00f5b00e08f5b0006003d006000b8008a
:1017f0006011b800040450008584580006055900a3
:1018000087855900e80f570004003200400020008f
:10181000f00f570038003a00010037003000200078
:10182000e00f5400e08f5c00e00f5d00e08f5d0092
:1018300004003a008c1090008d0120000100e000af
:10184000060032008e00e900888060008fba9700a1
:10185000e5c07800f1ef9f007d0120008000780056
:101860008100e900050033008b05d1000a85d30013
:101870008984d3000884d300f9ff3700089ebe0096
:101880000a96be00120037008d06e9008e00e900be
:10189000848060000fb99700e2c1780082fd2f00bc
:1018a0000f01410003f17e00800078008100e90013
:1018b000050033008783d1000683d3008582d300df
:1018c0000482d300f9ff3700049ebe000696be00d6
:1018d0003c02be002c03be00e00f5200e08f5a0015
:1018e000e00f5b00e08f5b008b0034000d00e00038
:1018f000e5ff3c00880037000c68900081c6b3000b
:10190000814f50000b00320006003c000004e00054
:1019100008003200e6c05000814f50004e003a00ef
:1019200004003700c1c6b300814f50004a003a009e
:10193000210037000800e00004003a000c1090007d
:101940008d0120000000e0000600320011000900b7
:101950000e84d8000fb99700e2c07800f1ef9f0025
:101960007d012000110009000e84d8000a00370014
:10197000110009000e04d8008d06e9000e81b9009f
:10198000020454008fb8970061417c0081fd2f0054
:101990008f80400082f07e00000478000800e000a4
:1019a000020032000d00e000f1ff3c00cfc4de0079
:1019b000614db90025003700e00f5400e08f5c0056
:1019c00004003a000c1090008d0120000000e0009f
:1019d000070032006171b9000800be00b5030700be
:1019e0008fb99700e3417800f3ef9f007d0120005d
:1019f0006171b9000800be009e0307000b003700ac
:101a00006171b9000800be008b0307008d06e90074
:101a100000f1b900020454000fba9700e4427c00c0
:101a200084fd2f000f02420005f27e000004be007c
:101a3000e00f5000e08f5800020032000d00e0007f
:101a4000efff3c004fcdde008a057800089ebe0007
:101a50000a96be0030003700e00f5400e08f5c00b3
:101a6000e00f5d00e08f5d0004003a000c10900074
:101a70008d0120000000e000090032006172b90011
:101a8000612bb9000800be000a01be003204070045
:101a90000fba970064427800f4ef9f007d012000a8
:101aa0006172b900612bb9000800be000a01be00d6
:101ab000220407000d0037006172b900612bb900e4
:101ac0000800be000a01be00270407008d06e900d9
:101ad00000f2b900040454008fba970065427c00fc
:101ae00085fd2f008f82420084f27e00009ebe00a2
:101af0000296be003c04be002c05be00e00f540060
:101b0000e08f5c00e00f5d00e08f5d0002003400bc
:101b10000d00e000e8ff3c00e80f570010003a001d
:101b20003c1090000038a3000d003200f78f5600e3
:101b300006003e0085fd2f008f824200e5c07e003a
:101b400000c3b30080cf5000050032008d06e900cd
:101b500002c3b30081fd2f008f80400082f07e0021
:101b600078811600420e98007c00900083fd2f00c3
:101b70008f8141008d804100ddfe07004c08900000
:101b80008c109000810f500006003d000080500036
:101b9000300e98003c1090000040a10030169800d4
:101ba0000f0037000100e0000d003d00bc10900068
:101bb000f4806000f08f500009003a002c11900072
:101bc000ac089000810051003c09900082805000d8
:101bd000008050004240a90001003400300e9800ff
:101be0004f0778004f06be004f05be004f04be00f1
:101bf000cf01b100000006000400fa00889fbe007b
:101c00008a9fbe008c1f78000004780001067800cf
:101c1000a814900028089000808454003808900090
:101c20008084540048089000808454005808900034
:101c300080845400680890008084540078089000e4
:101c4000808454000002220090bf9f000003230004
:101c5000a0bf9f00381090000028a30015003a0094
:101c60000900e00013003400090578008a057800b7
:101c7000e20f5500010036002b002000c801900043
:101c80000b017800ee80570068009000030001000f
:101c9000600498000000e000aa00320018109000d4
:101ca0000b004000101498000b0555004240a9009d
:101cb000eeff3c00280990000200e0000c00340018
:101cc000c80190008c0078006800900003000100bb
:101cd000600498008080eb000000e0009a00320071
:101ce0009810900028089000008040001014980080
:101cf000380d90000a00e000110034008a057800d9
:101d0000e20f5500010036002b002000c8019000b2
:101d10000b017800ec805700680090000300010080
:101d2000600498000000e000860032001810900067
:101d30000b004000101498000b055500edff370014
:101d400008699000c808900050c6b300804f510049
:101d500008003a000100e00015003400580290002d
:101d600008099000980990006800900004000100a4
:101d7000070037000100e0000d003400c8019000aa
:101d800001017800f8009000680090000300010055
:101d9000600498008080eb000000e0006a003200e0
:101da000981090004808900000804000101498009f
:101db000580d90000a00e000110034008a057800f8
:101dc000e20f5500010036002b002000c8019000f2
:101dd0000b017800ec8057006800900003000100c0
:101de000600498000000e0005600320018109000d7
:101df0000b004000101498000b055500edff370054
:101e0000086990006808900051c6b300814f5100e6
:101e10000d003a000000e0001c0034007801900042
:101e2000c8089000010141006111b800828fd20002
:101e30008381d200580290008000780068009000f2
:101e400004000100090037000000e0000f0034002a
:101e500078019000c808900081004100c8019000fe
:101e60000001780068009000030001006004980001
:101e70008080eb000000e0003300320098109000fa
:101e8000680890000080400010149800780d9000c1
:101e90000a00e000110034008a057800e20f5500c6
:101ea000010036002b002000c80190000b017800d3
:101eb000ec80570068009000030001006004980067
:101ec0000000e0001f003200181090000b004000de
:101ed000101498000b055500edff370038109000e6
:101ee0008000eb000028a300170032000900e0008a
:101ef0001500340009057800e28f54000100360017
:101f00002a002000c80190000a017800ee805700e6
:101f10006800900003000100600498000000e000e9
:101f200008003200181090000a00400010149800b9
:101f30008a8454004240a900eeff3c008000eb0080
:101f4000010037008080eb00010078004f06780028
:101f50004f05be004f04be000080fa0000000600de
:101f60000108780000000600e6874700889fbe0051
:101f70008a9fbe008c9fbe008e1f780082bf9f008c
:101f800004047800029ab900f4b79f000400e0004e
:101f9000590032000fb997000200e00057003200ec
:101fa0000006be0004077800c8009000680090009a
:101fb000808f50000400390008007800910007006d
:101fc0000000e0003b0035000040200018006000e9
:101fd0000a0032008e017800a20020000c00be0032
:101fe000fa0107000005be000080750007003200fe
:101ff0008c0455008904e800050037008e04780041
:102000000a0020000b002000010037008e04780039
:10201000480190006800900002005000890f5000b5
:1020200003003100800478000a0020000b0020002b
:102030006111b800828fd2008381d200090278003a
:102040000c00be00c40107000907570048009000bb
:1020500009004000400498000a8575000400320021
:10206000080078002c0007000000e00011003a0092
:102070000e00e0000f0032006148b800808fd200ef
:102080008180d2000000780000f0a1008c01d00017
:102090000001d000028641004220a80081864e0047
:1020a0004200a9004220ae004200a8000c86d300e6
:1020b000bdff3700008020001800600002003200e1
:1020c000080078001400070000c02000180060001d
:1020d00002003200c8019000630498007fb09700ae
:1020e0000e0750000fb99700110009000287d800b1
:1020f00080017800010037008001eb0003007800c8
:102100004f0778004f06be004f05be004f04be00cb
:102110006f00b10000000600889fbe000004780038
:102120000800e0000f003a008004eb00090478008a
:102130008800d000a0a12000610078000000e0002d
:1021400004003200f4ff07000000e00001003d0041
:102150008084eb000804e800e80f5400f4ff3a0024
:102160002500370000002200180060008004eb000a
:1021700021003200a80490000f003700090151002f
:10218000384090000000fb00890078006ff90700dc
:102190000000e00007003c00280090004004980088
:1021a00060049800500c98001890a0008084eb0008
:1021b000110037008084440048019000828f540051
:1021c000eeff390028009000400498009800780045
:1021d00002c020000281600001003a003800900037
:1021e00001e8a300020032006004980001003700fb
:1021f000500c98008004eb00090078004f04be00ea
:1022000000000600889fbe008a1f78000004780046
:10221000c8009000680190000000eb00828f500021
:102220003c003900180078002200290002016000fb
:10223000e20f510007003200012020000000e00002
:102240000100350001202400008c70000080eb00ac
:10225000300037000200260002006000820f5000ac
:1022600009003a0038009000808f500006003900c5
:1022700008007800a8ff0700800078000080eb00cd
:102280000100e00023003a001805780000c020009b
:102290000000650018003a00a804900060022000c9
:1022a00008004000808f540013003a0000202000f6
:1022b000ef000700200498000000e00005003a004d
:1022c00029049800490498008904e800390498001a
:1022d000080037000a60a0000a0c7800400498004b
:1022e000012020008080400031049800400c9800bc
:1022f000500c98000c000700280090005004980033
:10230000380090006004980000002600180c70004f
:102310000000eb004f0578004f04be0000000600ef
:102320006023210061003700881f7800a8a62000e4
:102330001804e00003003a00f9ff070020c0b300d2
:10234000004c78004f04780000000600889fbe0013
:1023500000047800080078006fff07008004780010
:1023600000042000180060000200320028009000e5
:102370005a0007000000eb0020049800384090004d
:102380000004e000050035000000fb00e6f807004f
:102390000000e000010032008084eb001810900083
:1023a0000000e000080032002af907000000e00009
:1023b000010032008084eb001810900047000700f5
:1023c0000000eb00101498000008200018006000c6
:1023d000150032000001eb006000b800a3a120004e
:1023e0000202d00063027a00880f520005003a0012
:1023f0000000400081804800008041000008eb00a0
:102400000600370061004000e08048000201e8005b
:10241000e80f5000e08f5800f0ff3a000800780005
:102420002e0007000e003700000c780000c0eb0003
:10243000304498006002200008004000200498000a
:102440004004980050049800400c980060049800e4
:10245000500c98007004980076004400000c98001e
:10246000090078004f04be0000000600881f7800b5
:102470000004eb006140b800e2ff2f00f3ff2f00e3
:102480000f01070082a22000620078000000e00037
:1024900001003200adff07000804e800e80f540017
:1024a000f4ff3a004f04780000000600010020000d
:1024b0000100e00008003200010080000100e0009f
:1024c000050032008100e900010088008100d00091
:1024d0000200800000b17800000006000000e0006b
:1024e0002f003200c0017800e38f51002c0036002d
:1024f0000308a3002a003a00415380000100e000d5
:1025000002003200810f50000400310011009800d9
:1025100040538800160037008200780011019000b7
:102520000200e00002003200800f5100faff390083
:102530001102780084824000850f50001800390095
:10254000808f520003003a008308420001007800a7
:10255000070037000200e000030032008301400062
:10256000830f51000e00390012009800900098006f
:10257000900090000100e0000900320010014000ce
:10258000828f500006003a0062a620000009eb008e
:10259000100178001108410091009000110098008e
:1025a00000000600889fbe000004780031538000c0
:1025b0000100e00002003200010078000d00370049
:1025c0004153800080a6200004003700910f540082
:1025d000250036000180e800910090000100e00035
:1025e000faff3a0010003700920f54001e00360028
:1025f0000280e800100178000200e000faff3a00d3
:10260000110178004153800080a6200004003700ab
:10261000910f5400140036000180e80091009000f2
:10262000828f5000faff3a0069538000888f54006f
:1026300001003100880478000900780036000700a6
:102640000000e00004003a00888f540005003200ca
:102650008904d100f5ff3700091878009fff0700b3
:10266000d2ff37000000eb004f04be000000060060
:10267000881f7800630440000800a1008000eb0080
:10268000800f540021003600e30f540001003e008b
:102690004800200008007800c2ff07008000eb001f
:1026a0000000e000190032009000780091017800ed
:1026b00064815100880f5100030031001101900026
:1026c00002087800070037000881400002087800ff
:1026d0009101900013019800100178001109140075
:1026e00088087800100178000000eb000200e0008c
:1026f00004003200920190000300e000010032006b
:102700000280e800305388008180e80001007800f2
:102710004f04780000000600800078000000eb0005
:102720000100e000050034000100780052f80700c5
:10273000e10f400001003a000000eb00000006003d
:1027400000c0da000000060000c0da000000060049
:1027500000c0da00000006003400f8000203be00ea
:10276000820270008502720002f0a60000f0a6004e
:102770008100e800a10188001500b20008003200c5
:10278000105978000402e9000d0032006100400099
:10279000fbff39003420ec0000002800f8ff370070
:1027a000101978000482e900050032006200400040
:1027b000fbff39003420ec0000002800f8ff370050
:1027c0003400f9000601be00000006000300e0002e
:1027d00007003200a5018000a101880010427800a6
:1027e000a50188000402fb00820f52001100320094
:1027f0008301e900a5018000a10188001042780052
:10280000a50188000404e0000800320000027800fe
:102810001000b00000026a004260af0000f0a000ab
:102820000482d2000180b000e8ff370000002000e1
:102830000100200000000600839f68000100e00006
:1028400002003d0060001000e08018000300e0007e
:1028500002003d0060011100e08119000500070041
:102860004f00e00002003b0060001000e080180014
:10287000000006006022b800060220000000d00020
:102880008180d2000482d2008582d2000000a000a4
:102890000202520083825a00030031000202420009
:1028a00083824a000000a1000603e900f3ff3a001a
:1028b00000000600efff07000400be000000060055
:1028c000020ab900001bb9000200b80081004200f2
:1028d0008100430000000600889fbe008a9fbe0062
:1028e00030044200b0844a0030054b0090854b0014
:1028f0006000b1000898be000a90be000440e100ec
:1029000005c8e10006d0e10007d8e100020031006f
:10291000680040001008e8004f05be004f04be00ec
:1029200000000600889fbe008a9fbe003004be00e3
:102930002005be000418540005985c0006185d00d0
:1029400007985d00110020000440e10005c8e10087
:1029500006d0e10007d8e100010039008000eb005b
:10296000108810004f05be004f04be000000060096
:102970001200fa00889fbe008a9fbe008c9fbe0096
:10298000e0b79f00f1b79f0082bf9f0093bf9f00f9
:102990000605be000404be000000eb00d0b79f0097
:1029a000c0b79f00b0b79f00a0b79f0090b79f002f
:1029b000000678005fb19700cfb097008201410018
:1029c0003fb097000200e00004003d003700070020
:1029d0007e805700c0ff0700030037003300070068
:1029e0007e805700cfff0700dfb697000d00e000a4
:1029f0000c0035006fb29700ffb297000fbb970035
:102a00009fbb970010002000010020006011b8005b
:102a100000027200818272000203730083837300dc
:102a20001b0007000c06e80001042000810f56007f
:102a3000e0ff3a000d00e00004003d000802be0087
:102a40000a03be007e805700a3ff07005fa897001f
:102a50000000e00005003a001fb29700afb29700f7
:102a60003fb39700cfb39700090007006fb09700fe
:102a7000ffb097000fb997009fb997004f06be00af
:102a80004f05be004f04be000080fa0000000600a3
:102a90000100070000000600a4b79f00b5b79f0023
:102aa000c6b79f00d7b79f00000006004f09de00a1
:102ab00082817100b3b79f004f01de00818040002a
:102ac00082807000a1b79f008fb097004f09de0091
:102ad000000040000200700090b79f007fa89700a0
:102ae0004f01de00818040008280700081b79f002e
:102af0000d0007004f3ade000000400004007000a7
:102b0000f0af9f00080007000402420085824a00df
:102b100006034b0087834b00dfff07000802be005f
:102b20000a03be00000006002fb29700bfb2970054
:102b30004fb39700dfb3970000000600881f7800ae
:102b400018002000881f780089ff07008f87e900a0
:102b50004f04780000000600801feb0084ff070090
:102b60008f87e90000000600889fbe008a9fbe0094
:102b7000e00f5000e08f5800e00f5900e08f59003f
:102b80000c003d006044b8006055b80000005400df
:102b900081805c0002015d0083815d0018002000df
:102ba0001500070008003d00180007000004eb00b6
:102bb000050037000004eb000f00070002003d0095
:102bc0001200070018002000dcff07000800e000ea
:102bd000060032006022b8006033b80000005200e6
:102be00081805a0002015b0083815b004f05be00bb
:102bf0004f04be0000000600e00f5200e08f5a00b4
:102c0000e00f5b00e08f5b00000006006044b8004e
:102c10006055b8000402540085825c0006035d0024
:102c200087835d0000000600889fbe008a9fbe006b
:102c30008c1f7800e00f5000e08f5800e00f590023
:102c4000e08f59000d003d006044b8006055b800a9
:102c50000000540081805c0002015d0083815d0002
:102c60001c0020000820e10009a8e1000ab0e100f2
:102c70000bb8e1000d003d00080037000006eb0036
:102c8000e00f5200e08f5a00e00f5b00e08f5b0026
:102c900006003d006044b8006055b80004025400ce
:102ca00085825c0006035d0087835d00aaff070044
:102cb0000c00e000060032006022b8006033b8006b
:102cc0000000520081805a0002015b0083815b009a
:102cd0004f0678004f05be004f04be0000000600fe
:020000040000fa
:102ce000576500006c6300006f6d000065210000f7
:102cf000204400006f750000626c00006520000039
:102d0000636c0000696300006b200000746f0000ba
:102d100020730000746100007274000020670000de
:102d2000616d000065000000534300004f52000039
:102d3000453a0000202500006400000025640000e2
:042d4000000000008f
:020000040000fa
:102d44001a080000ec00000002000000000000006f
:102d5400000000000000000000000000000000006f
:102d6400000000000000000000000000000000005f
:102d7400000000000000000000000000000000004f
:102d8400000100000100000000010000000001003b
:102d9400000100000000010000000000000000002d
:102da400000100000000000000000000010000001d
:102db400000000000100000000000000010000000d
:102dc40000000000010000000001000000000100fc
:102dd40000010000000001000001000001000100ea
:102de40000000000010001000000000001000000dc
:102df40000010000010001000000000000000100cb
:102e040000000000000001000000000000000100bc
:102e140000000000000001000000000001000000ac
:102e24000001000001000000000100000100010099
:102e3400000100000000010000010000000001008a
:102e4400000000000100010000010000000000007b
:102e5400000000000000000000000000000000006e
:102e6400000000000000000000000000000000005e
:102e7400000000000000000000000000000000004e
:102e84000000000000000000000800001a0000001c
:102e940000000000060900009c0000000200000081
:102ea400930293000200000093020000000b020052
:102eb4009302000000100300000000000000000066
:102ec400880100000000000000000b000200000068
:102ed400000088000100000000004a00010000001a
:102ee4000000b80001000000ee01000000d2010063
:102ef400b801000000880100930210000370030071
:102f04000000ba0002100300000093000200000059
:102f14000b024b0002ee010000000000000b020057
:102f2400000000000088010000000000004a0100c9
:102f34000000000000b801000000ee0001000000e5
:102f4400d201b800010000008801930002100300c0
:102f54007003000000ba0200100300000093020096
:102f640000000b00024b0200ee0100000000000014
:102f74004c0a00001a00000002000000686a6c009d
:102f8400747a4c00000001000002000004000800f4
:102f940000100000000020002b2d23003000000052
:102fa4002a0a000022000000020000003031320032
:102fb4003334350036373800394142004344450044
:102fc40046003000313233003435360037383900aa
:102fd400616263006465660000000000a2090000ed
:102fe40088000000020000000100000000c8090081
:102ff400c909c80009c80900c809c80009b80900f6
:1030040000000000000000000000000000000000bc
:1030140000000000000000000000000000020800a2
:103024000101f00009f10900f009f00009f00900bc
:10303400f009e000090000000000000000000000aa
:10304400000000000000000000000000000000007c
:103054000000020008020200180a19000a180a00f7
:10306400180a18000a180a00080a000000000000e4
:10307400000000000000000000000000000000004c
:103084000000000000000000a209ca0009f20900c3
:10309400000000000000000000000000000000002c
:1030a4006a0a000002000000000000006c0a000030
:1030b400020000000200000004000000660a000094
:1030c40004000000000000006e0a0000020000007e
:1030d4000200000001000000700a0000020000006d
:0830e4000000000000000000e4
:020000040000fa
:1030ec000200fa00004f78001602a8000000000051
:1030fc00b0108000610060000000e000fcff3a00ae
:10310c008a40a900c0072000901088000000000031
:10311c0050048000640060000000e000fcff3200fe
:10312c008a40a9001222ef00000000005004800029
:10313c00640060000000e000fcff32008a40a9003f
:10314c001e00fb009010880000000000500480005e
:10315c00640060000000e000fcff32008a40a9001f
:10316c001642a80000000000b0108000640060004f
:10317c000000e000fcff3a000080fa0000000600ae
:10318c000000fa00d0092000a01088008a40a90095
:10319c0017e2a8008002200001002000f2020700c4
:1031ac0080c3b300ceff070090c3b300ccff070071
:1031bc0040c1b300caff070000c7b300c8ff070037
:1031cc00e0c5b300c6ff0700c0c6b300c4ff0700cc
:1031dc00800c200001002000e302070080c3b30034
:1031ec00bfff0700c0c0b300bdff070010c0b30095
:1031fc00bbff07005000200001002000da0207008e
:10320c000080fa00000006000200fa00004f78006f
:10321c001602a80000000000b010800061006000e1
:10322c000000e000fcff3a008a40a900c007200023
:10323c0090108800000000005004800064006000c2
:10324c000000e000fcff32008a40a90000042000ce
:10325c0090108800000000005004800064006000a2
:10326c000000e000fcff32008a40a9001e00fb00b9
:10327c009010880000000000500480006400600082
:10328c000000e000fcff32008a40a9001642a800b2
:10329c0000000000b0108000640060000000e0003e
:1032ac00fcff3a000080fa00000006000400fa005f
:1032bc002047980031479800be40900060002000e5
:1032cc008008dd002e40900000c040008040780057
:1032dc000174a000014f78001e40780080ff0700a9
:1032ec000080fa00000006000600fa002007980093
:1032fc002e009000f0f607000000e900100798007f
:10330c000000eb00000f78001602a800000000007f
:10331c00b0108000610060000000e000fcff3a008b
:10332c008a40a900c007200090108800000000000f
:10333c0050048000640060000000e000fcff3200dc
:10334c008a40a9000000eb00000f78001500370040
:10335c00000c200090108800000000005004800039
:10336c00640060000000e000fcff32008a40a9000d
:10337c001e007800ae0090000080400010407800e5
:10338c000000fb009010880000000000500480003a
:10339c00640060000000e000fcff32008a40a900dd
:1033ac001e0fe8001e0090009e007800808f5000d9
:1033bc00e7ff35000004200090108800000000009a
:1033cc0050048000640060000000e000fcff32004c
:1033dc008a40a9001e009000ae00900000804000c2
:1033ec00104078000000fb009010880000000000e6
:1033fc0050048000640060000000e000fcff32001c
:10340c008a40a9001642a80000000000b0108000fd
:10341c00640060000000e000fcff3a000080fa004d
:10342c00000006000000fa0080c1b3002cff07006a
:10343c000080fa00000006000000fa00c0c1b300d2
:10344c0027ff07000080fa00000006000800fa00c1
:10345c001007980021079800320798000000eb0035
:10346c00000f78002e0090001000780061072000fb
:10347c00808050003e009000808f500002003d0084
:10348c000080eb001c0037000000eb00000f780000
:10349c000c0037003e0090001e0040000000400071
:1034ac009e00900000804000100078000000e000ba
:1034bc0002003200e701070001003700f3010700aa
:1034cc001e0fe8002e009000100078009e0f500098
:1034dc00f0ff3c003e0090000000e80000004000bf
:1034ec009e00900000804000100078007040880022
:1034fc003e0090000000e8000080fa00000006008a
:10350c001000fa0002020700090107001cff070067
:10351c007b0007008040eb000040eb0063ff0700de
:10352c000e8fe8001e0078003101200001087800a1
:10353c001e00780041002000110098001e00780049
:10354c00100090001100200000017800110009000b
:10355c008200d800cf80de00022424000289b9004a
:10356c00020178006f02b900840178000301410068
:10357c00032424000300b8000101410082007800fc
:10358c00b8f5070002002000a327240037f5070038
:10359c00020020000310240034f507000200200074
:1035ac0003f82300d3f4070093f50700000078001c
:1035bc00100888001e007800bb0107000067290076
:1035cc0049ff07000400370096ff07000019200090
:1035dc0001002000e40107004240800060408000b0
:1035ec0080007800804080002400200003802000b0
:1035fc008f0007000000e000f3ff32002004800081
:10360c00680060000000e0000e003a00c04080003e
:10361c00000178009e007800a08120008bff07003d
:10362c00c0408800704080000000e00003003a00b9
:10363c000000eb0011010700020037000019200008
:10364c000e010700704080000000e00003003a000b
:10365c000000eb00090107000200370000192000f0
:10366c0006010700c0408000e10f400010003a0046
:10367c000000eb0001010700c1fe07008040eb00d9
:10368c000040eb0009ff0700b140800066004700d6
:10369c00811f780041692900811f780020f60700fe
:1036ac00e4875700660047000fff07000f00370044
:1036bc00b3fe07008040eb000040eb00fbfe070070
:1036cc00c140800066004700811f7800e169290035
:1036dc00811f780012f60700e48757006600470048
:1036ec0001ff07004fff0700c4ff37004dff070025
:1036fc0000192000010020009b010700fbff370090
:10370c000000fa00c902a8006ac0a800113a8000a3
:10371c00f00b200000816000600420007105200087
:10372c002374200080497800814978008249780010
:10373c007134800000fe2f00008060000030a0007b
:10374c0070348800113a8000000420000081600071
:10375c00600420007105200023742000804978004b
:10376c0081497800824978001021ef00810880009f
:10377c0000032000010070008008880030422f00f8
:10378c00600888000621ef0094e0a80084e0a900fe
:10379c004221ef0042e1a800110a800080ff2f00b7
:1037ac00008060000010a000100a88008420a9008e
:1037bc009420a8004021ef0011e1a8000080fa003d
:1037cc00000006000c00fa00200798003107980052
:1037dc0042079800530798004e009000800040006c
:1037ec002e01900081004100910078006109b90020
:1037fc00028fbe000000e80040079800ce00900049
:10380c003e00900000017800110009008280d80071
:10381c008000fd00400798005e0090000000e90069
:10382c00500798001e00be000080fa000000060041
:10383c000e00fa0020079800310798004207980004
:10384c0053079800640798006000b800008fbe0012
:10385c001f0037003e0090000000e0001b0032000b
:10386c003e00900000017800ce0090005e009000b9
:10387c008201780001017800ee009000d1ff070072
:10388c00008fbe001e00be00e00f5000e08f5800fd
:10389c000f0032005e009000640040001000be007b
:1038ac00e00f5000e08f58000900320080d0230058
:1038bc00010020001e01be00800f5100818f5900b5
:1038cc0003003e001000200017003700000000002d
:1038dc00300880006102b8002e009000cf80de001e
:1038ec0042422f000289b900020178006003b9003e
:1038fc00860178000301410043422f000300b80009
:10390c0001014100820078000401400085814800db
:10391c0070842e0011002000800f5100818f5900ff
:10392c00ccff36000000eb000080fa00000006001f
:10393c000000fa00f0ff290060198800c8c2a90035
:10394c00113a8000f00b2000008160006004200020
:10395c00710520002374200080497800814978008b
:10396c00824978003136800000fe2f000080600014
:10397c002001b30030368800103a80000001780036
:10398c000260a00060042000710520002374200058
:10399c008049780081497800824978008421ef00c1
:1039ac008461a800210c800080ff2f000080600043
:1039bc006000b300200c88001221ef0091088000f9
:1039cc00f0fc2f0000806000900888000a21ef00b6
:1039dc00001920007008880013e1a8008021ef0076
:1039ec001e21ef00f1088000f0fc2f000080600029
:1039fc00f00888001421ef001a21ef000080fa0073
:103a0c00000006000200fa00000f780011002000f0
:103a1c001e00780000017800110009008200d80017
:103a2c00cf80de00022424000289b9000201780054
:103a3c006f02b900840178000301410003242400c3
:103a4c000300b800010141008200780085f40700f2
:103a5c0002002000a327240004f407000200200029
:103a6c0003f82300a3f3070063f4070000007800b9
:103a7c00d00888000080fa00000006000200fa005e
:103a8c00000f78001e007800cf00de0000804000a0
:103a9c000080d100000c88000080fa0000000600b5
:103aac000400fa0010079800110020001e0090007e
:103abc0000017800110009008200d800cf80de00e0
:103acc00022424000289b900020178006f02b900b7
:103adc008401780003014100032424000300b80092
:103aec0001014100820078005ef407000200200012
:103afc00a3272400ddf307000200200003f82300b5
:103b0c007cf307001bf40700000f78001e00780000
:103b1c00700888001e007800d8ff07000080fa00ab
:103b2c00000006000800fa00100798002107980012
:103b3c00320798000000eb00000f78008000200096
:103b4c00000f78000c0037009e0090000008200049
:103b5c00008060000000e0000200320098000700c6
:103b6c00010037008f0007001e009000000040008d
:103b7c00100798001e0fe9001e0078000000e000fe
:103b8c00f1ff3c0080002000000f78000c00370093
:103b9c00ae00900000082000008060000000e000f3
:103bac000200320086000700010037007d0007008c
:103bbc002e00900000004000200798001e0fe90026
:103bcc001e0078000000e000f1ff3c0080002000a7
:103bdc00000f78000c003700be0090000008200099
:103bec00008060000000e00002003200740007005a
:103bfc00010037006b0007003e0090000000400001
:103c0c00300798001e0fe9001e0078000000e0004d
:103c1c00f1ff3c000080fa00000006000000fa00f2
:103c2c0012022000110e2000c00c2000bdff070066
:103c3c000080fa00000006000000fa000001eb0012
:103c4c008000eb00f00f2000b6ff07000080fa00a8
:103c5c00000006000000fa000001eb00f10f20004c
:103c6c000000eb00afff07000080fa000000060028
:103c7c000000fa00f20f20008000eb000000eb00c7
:103c8c00a8ff07000080fa00000006000000fa0000
:103c9c00c20f2000c10f2000b00f2000a1ff0700b1
:103cac000080fa00000006000600fa0020079800c9
:103cbc000000eb00000f78000f0037000000eb0055
:103ccc001007980004003700dbff07001e0090006f
:103cdc000000e800100798001e0090009e0f500096
:103cec00f9ff35003c000700800c2000010020008b
:103cfc001d0007001e0fe8002e0090001000780039
:103d0c009e0f5000edff3d000080fa000000060001
:103d1c000000fa00213a8000f08f2f000080600034
:103d2c00203a8800f0ff290060198800c8c2a90059
:103d3c0005e1a9000421ef0021088000f0fc2f0010
:103d4c00008060000040a000200888000021ef00e7
:103d5c000221ef0005e1a80011e1a9001021ef00fc
:103d6c000080fa00000006000400fa00008fbe007c
:103d7c00060037007e3e0900000000000081eb00c9
:103d8c008081eb001e0f41005e9749001e00be00b3
:103d9c00e00f5000e08f5800f6ff3a000080fa0068
:103dac0000000600c422ec00020009000000000024
:103dbc00c422ef000c000900000000000000060007
:103dcc00c422ec000800090000000000c422ef002f
:103ddc000000000000000600c422ef0000000000fc
:103dec00000006003b060900000000000000060071
:0c3dfc007a3e09000000000000000600f4
:020000040000fa
:020000040001f9
:0457f8000ff90000a5
:020000040000fa
:020000040001f9
:0457fc007f3f0000eb
:00000001FF
